:100000000C942F010C947F0B0C94540B0C94290B23
:100010000C94FE0A0C94D30A0C94A80A0C947D0A42
:100020000C94520A0C9459010C94750D0C945901BE
:100030000C9459010C9459010C9459010C945901D8
:100040000C94080A0C9459010C9459010C94590110
:100050000C9459010C9459010C9459010C945901B8
:100060000C9459010C9459010C9459010C945901A8
:100070000C9459010C94DA0C0C9459010C9459010C
:100080000C9459010C94AA0B0C94590142030000E2
:10009000000000120D0000000000000101C08000FF
:1000A000000000000000000000060000000000004A
:1000B0000000000000000000000000000000000040
:1000C0000000000000003F000000000000000000F1
:1000D0000000000000000000000000000000000020
:1000E0000000000000000000000000000000000010
:1000F00000000000000000000000000002001400EA
:100100000300140004001400050014000100100096
:10011000010010000100100001001000010010009B
:1001200001001000010010000100100000801F00FD
:1001300000811F00FF000000FF000000FF00000022
:10014000FF000000FF000000FF000000FF000000B3
:10015000FF000000FF000000FF000000FF000000A3
:10016000FF000000FF000000FF000000FF00000093
:10017000FF000000FF000000FF000000FF00000083
:10018000FF000000FF000000FF000000FF00000073
:10019000FF000000FF000000FF00000000003A0028
:1001A00037003400310022006100640000003B0091
:1001B00038003500320023006200650005050505A2
:1001C00005050505020202020202020207070404F5
:1001D00004040404040407070303030303030303E1
:1001E00007010101010101010106060606060606D6
:1001F000060102040810204080010204081020407B
:10020000800810010204081020408001020102044D
:1002100008102040800480402010080402010102E0
:100220000408102040800000000A0B0C00000000B1
:1002300000000104050600000000000000000000AE
:1002400000000000000000000000000000000000AE
:10025000000000000000000000000000C20D11249A
:100260001FBECFEFD0E1DEBFCDBF11E0A0E0B1E017
:10027000E0E3F0E200E00BBF02C007900D92A2366F
:10028000B107D9F722E0A2E6B1E001C01D92AC3679
:10029000B207E1F711E0CFE2D1E004C02197FE01FF
:1002A0000E94C50ECE32D107C9F70E94D30D0C941F
:1002B00016100C94000090915B0281E0913208F0DE
:1002C00043C0809137028111FCCF80915A0222E015
:1002D0002093370221E0209336022FEF209335023E
:1002E0002AE332E030933402209333021092320238
:1002F000909331021092300290913002880F892B36
:100300008093300280912F02813029F510922F02C4
:1003100080913002809373008091740083FDF8CF48
:1003200085EC80937400809137028230E1F38091F4
:1003300035028F3F91F080913502803281F08091BB
:100340003502803371F084E01092390210925B0222
:1003500010923802089585EEE4CF80E0F5CF82E078
:10036000F3CF83E0F1CF90E0FC01EA5DFD4F2491F3
:10037000FC01EF50FE4F349184549E4FFC01849158
:10038000882341F12223C1F021502C30A8F4E22F20
:10039000F0E0E353FE4F0C94C50E03020302DC01B0
:1003A000D901EB01EE01F101DC01DC01F501FB01FA
:1003B000FF019FB59F779FBDE82FF0E0EE0FFF1F75
:1003C000E455FE4FA591B4918FB7F894EC913E2B74
:1003D0003C938FBF08959FB59F7DEDCF9FB5977FCD
:1003E000EACF95B59F7D95BDE7CF90918B009F7724
:1003F00090938B00E1CF90918B009F7DF9CF9091EE
:100400008B00977FF5CF93B79F7D93BFD5CFE82F14
:10041000F0E0EB5EFD4F8085861739F06087618BD9
:10042000809117028360809317020895262F30E091
:1004300090911B029078691729F0909117029C60A7
:10044000909317023695322F222737952795822BC6
:1004500080931B0280931C020895E091F301F091B8
:10046000F401309729F01092390210925B0209943E
:100470000895CF93DF93AC01E091F101F091F20187
:100480003097F1F09091F0018091EF019817C0F052
:1004900090E0292F30E02617370754F4D901A459EA
:1004A000BE4F240F351FE90128812C939F5FF1CFA8
:1004B0001092F0016093EF01CB01DF91CF9109948D
:1004C000DF91CF91089508958091EF019091F0010F
:1004D000891B990B089585ED8093740080917400B9
:1004E00084FDFCCF1092370208952091AC01260FB5
:1004F0003327331F21323105ECF420913702FC0100
:1005000090E080E0243069F082E00895A091AC0191
:100510002191AC0144575E4FA40FB52FB11D2C9310
:100520000196861798F38091AC01680F6093AC0137
:1005300080E0089581E008950895E091F0018091B0
:10054000EF01E81730F4F0E0E459FE4F808190E0CD
:1005500008958FEF9FEF08959091F0018091EF0142
:100560002FEF3FEF981748F4E92FF0E0E459FE4FE2
:10057000208130E09F5F9093F001C9010895CF92F0
:10058000DF92EF92FF920F931F93CF93DF937C0143
:10059000CB018A0120913802222389F0EB016B0103
:1005A000C40ED51ECC15DD0569F06991D701ED911A
:1005B000FC910190F081E02DC7010995F3CF642FE4
:1005C0000E947502C801DF91CF911F910F91FF909A
:1005D000EF90DF90CF900895CF93DF931F92CDB728
:1005E000DEB76983209138022223F9F020915B0263
:1005F000203258F021E030E0FC013383228390E088
:1006000080E00F90DF91CF91089580913902E82F1B
:10061000F0E0E65CFD4F998190838F5F8093390213
:1006200080935B0281E090E0ECCF61E0CE01019627
:100630000E947502F7CF1F93CF93DF93C3EED1E0F3
:10064000188169818CE592E00E94EC02612F8CE5B3
:1006500092E00E94EC026A818CE592E0DF91CF91FA
:100660001F910C94EC0290E080E0089580E090E00F
:10067000892B29F08091140283FD0C9400000895C9
:10068000009731F16091180270911902861797074F
:1006900009F06DC041504A30D8F4E42FF0E0ED5A33
:1006A000FC4F0C94C50E5D036903740384038B0334
:1006B00092039903A003A703AF0380911D0228179B
:1006C00039F020931D0280911702816080931702F8
:1006D000089590911E0280EF820F292B28239217F4
:1006E000B9F320931E02EFCF30911E0240E1249F08
:1006F000C0011124832B2295207F215F822338178C
:1007000039F380931E02DFCF80911F02281701F377
:1007100020931F02D8CF809120022817C9F220937E
:100720002002D1CF80912102281791F2209321023B
:10073000CACF80912202281759F220932202C3CFF8
:1007400080912302281721F220932302BCCF8091AD
:100750002402281709F4BCCF20932402B4CF80913F
:100760002502281709F4B4CF20932502ACCF30918D
:100770001A023F773817190609F0AACF4230A1F0C4
:1007800018F4413031F008954330D1F0443049F14C
:10079000089580912602281709F49ACF2093260203
:1007A00080911702826092CF9091270280EF820F92
:1007B000292B2823921709F48BCF20932702F0CFFF
:1007C0003091270240E1249FC0011124832B229500
:1007D000207F215F8223381709F47ACF8093270284
:1007E000DFCF80912802281709F472CF20932802C6
:1007F000D7CF0F93009721F16091180270911902E1
:100800008617970729F5822F90E030911B023078E8
:10081000231729F0209117022460209317020D312D
:1008200089F00F3779F00F3081F49C013695322F23
:1008300022273795279580911B02822B80931B02DC
:100840000F91089540931B02F0CF10921B02EDCF41
:1008500030911A023F773817190691F7822F90E0EE
:1008600030911C023078231729F02091170228605C
:10087000209317029695982F882797958795482B50
:1008800040931C02DDCF81508E30D8F4E82FF0E089
:10089000E45BFB4F0C94C50E5A045C0462046404D0
:1008A0006A046C0470047204760478047C047E0488
:1008B00082048404A998089580916200877F8093C0
:1008C0006200089596980895809165008D7F8093C9
:1008D000650008951C980895809162008F7BEFCF8A
:1008E0001B980895809162008F7DE9CF1A98089532
:1008F000809162008F7EE3CFA89808958091620076
:100900008B7FDDCFAA980895809162008D7FD7CF2D
:100910001F93CF93DF93EC018A819B8110E0892B99
:10092000E9F48D819E8110E0892B69F588818E7FA5
:100930008883DF91CF911F910895812F90E0880FD8
:10094000991FEA81FB81E80FF91F0190F081E02DEA
:1009500080818F7780830E9443041F5F89811817ED
:1009600060F3DFCF812F90E0880F991FED81FE812A
:10097000E80FF91F0190F081E02D80818F7780834F
:100980000E9443041F5F8C81181760F3CFCFFC01D6
:1009900090819570953019F4CF010C9488040895D6
:1009A000FC01208120FF03C022FF0C9488040895DD
:1009B00081508E30D8F4E82FF0E0EF51FB4F0C94CB
:1009C000C50EEF04F104F704F904FF040105050561
:1009D00007050B050D051105130517051905A99A3E
:1009E0000895809162008860809362000895969ACD
:1009F00008958091650082608093650008951C9A37
:100A00000895809162008064EFCF1B9A08958091D1
:100A100062008062E9CF1A9A089580916200806135
:100A2000E3CFA89A0895809162008460DDCFAA9AEE
:100A30000895809162008260D7CF90911702882339
:100A400061F090619093170281E00E94D804809138
:100A50008A00887F80938A0008959F7E9093170272
:100A600081E00E94430410928800109289008091D6
:100A70008A008460EFCFCF93C82F8091FD018C173F
:100A800019F08C2F0E941D05C093FD01CC23F9F0B5
:100A90002FB7F8948091F7019091F801A091F90196
:100AA000B091FA012FBF482F392F2A2F8B2F409357
:100AB000FE013093FF012093000280930102809198
:100AC000FD018C1749F08C2FCF910C941D0540E04F
:100AD00030E020E080E0EBCFCF9108950F931F939B
:100AE000CF938C01C0E0F8018181C81720F0CF912D
:100AF0001F910F9108958C2F90E0880F991FD801B6
:100B00001296ED91FC91E80FF91F0190F081E02D14
:100B10008081982F906890838F770E94D804CF5F50
:100B2000E2CF1F93CF93DF93EC01288120FD15C006
:100B300022FF13C0322F3160388321FF09C02A8180
:100B40003B81232B51F0DF91CF911F910C946E05C7
:100B50002D813E8110E0232BB9F4DF91CF911F91BD
:100B60000895812F90E0880F991FED81FE81E80F95
:100B7000F91F0190F081E02D8081982F906890837B
:100B80008F770E94D8041F5F8C81181750F3E5CF30
:100B9000CF93DF93EC018881982F9270691789F0C9
:100BA000662369F082608883888180FF0AC0CE0155
:100BB0000E94C704CE01DF91CF910C9491058D7FE7
:100BC000F2CFDF91CF9108951F93CF93DF93EC0184
:100BD0002881322F357099F4322F3160388321FF0C
:100BE00009C02A813B81232B51F0DF91CF911F91C6
:100BF0000C946E052D813E8110E0232BB9F4DF911A
:100C0000CF911F910895812F90E0880F991FED815A
:100C1000FE81E80FF91F0190F081E02D8081982F6F
:100C2000906890838F770E94D8041F5F8C8118177B
:100C300050F3E5CFCF93DF93EC018881982F92702A
:100C4000691789F0662369F082608883888180FF54
:100C50000AC0CE010E94D004CE01DF91CF910C9446
:100C6000E4058D7FF2CFDF91CF910895E5E6F0E0C6
:100C70008081816080838FE79EE30197F1F700C058
:100C8000000080818E7F808308950C9436061F9328
:100C9000CF93DF93EC018091170284FF0BC08FE0AC
:100CA00090E00E94AC0E182F80E190E00E94AC0E04
:100CB000181306C0CE01DF91CF911F910C94AC0E9A
:100CC000FFCF0C944706CF93DF9320911102309110
:100CD00012022F3F320721F0C901DF91CF91089511
:100CE0008091140287FF2BC086FF0FC089E090E03F
:100CF0000E946106C82F81E090E00E9461069C2F4F
:100D0000909312028093110215C089E090E00E9436
:100D10006106C82F81E090E00E94610690E4C99FBF
:100D200090011124207C31708F73282B3093120294
:100D3000209311028091110290911202CECF85FF73
:100D40000CC081E190E00E946106C82F82E190E032
:100D50000E946106C05CDD0BD2CF81E090E00E9472
:100D6000610690E0CDCFCF93863823E0920719F14A
:100D700038F4813823E09207D9F0CF910C94AC0E6F
:100D8000873823E09207D1F0883823E09207A9F74B
:100D900086E893E00E94AC0EC82F87E893E00E949B
:100DA000AC0E90E02FEFC29F800D911D1124E5CF76
:100DB00081E893E0E2CF86E893E0DFCF87E893E035
:100DC000DCCF0F931F93CF93DF93EC01162FC63820
:100DD00083E0D80781F150F4C13883E0D807F9F0F7
:100DE000612FCE010E94B40ECE011FC0C73883E030
:100DF000D80741F1C83883E0D80791F786E893E037
:100E00000E94AC0E082F87E893E00E94AC0EC82F1A
:100E1000D0E08FEF089FC00DD11D1124E1CF81E8F4
:100E200093E00E94B40E81E893E0DF91CF911F918F
:100E30000F910C94AC0E86E893E00E94B40E86E805
:100E400093E0F3CF87E893E00E94B40E87E893E045
:100E5000ECCFCF93DF93D0E0C0E0FE01E457FF4F2B
:100E60006491CE010E94B40E2196C03181E0D80772
:100E7000A1F761E081E893E00E94B40EC0E0CF5F8B
:100E80008C2F0E94D804CE30D1F7DF91CF910895F6
:100E90000C9429071F93CF93DF9320911C012223E9
:100EA000C1F02FEF3FEF3093D2012093D101309367
:100EB000D6012093D5013093DA012093D9013093E4
:100EC000DE012093DD013093E2012093E1011092D5
:100ED0001C0182309105C9F08330910509F458C096
:100EE00020E030E0232B11F00E9400008091EF0100
:100EF0009091F001891B990B181619060CF044C04B
:100F00008CE592E00E94AC02F1CFEFECF1E0D0E092
:100F1000C0E0828193810196E9F4CC0FDD1FCC0FF4
:100F2000DD1FC153DE4F1B821A828CE592E00E94C6
:100F3000AC0288838CE592E00E94AC028983E09148
:100F4000F501F091F6013097C9F4D093F601C09302
:100F5000F5011AC021963496C530D105D1F680919D
:100F6000EF019091F001891B990B1816190664F492
:100F70008CE592E00E94AC02F2CFFC018281938169
:100F80000097D9F7D383C283DF91CF911F91089542
:100F90008CE592E00E94AC02182F8CE592E00E9452
:100FA000AC02D12F90E0C92FC80FD11DD093E4011E
:100FB000C093E3018CE592E00E94AC02682F80931D
:100FC000E501CE01D7FF21C09F779093E401809384
:100FD000E3018830910561F0843823E0920741F005
:100FE0008C3A23E0920721F0843D23E0920741F4FC
:100FF00081E8683039F4DF91CF911F910C94290773
:101000000E94E1068093E501BFCF0E94B306FACFAC
:101010001F93CF93DF93EC01162F089779F4662383
:1010200019F10E94290780E090E0892BB9F0612F27
:10103000CE01DF91CF911F910C94000080E090E0F1
:10104000892BA9F781E0C11590E1D90708F080E06C
:10105000111105C0DF91CF911F91089581E027976D
:101060002297C0F780E0F6CF80E090E0892BF9F678
:1010700081E0F0CF0F931F93CF93DF93EC01162FF6
:101080008091170284FF25C0CF30D10561F48FE035
:1010900090E00E94B40E8FE090E0DF91CF911F911D
:1010A0000F910C94AC0E8FE090E00E94AC0E082FD4
:1010B00080E190E00E94AC0E08130AC0C730D10551
:1010C00031F0C830D10529F4183049F0FFCFFFCFF7
:1010D000FFCF612FCE010E94B40ECE01DECF0E9461
:1010E000290788E0DF91CF911F910F9108950E9409
:1010F0003B05EBEFF1E081E087831086E4E0F2E06E
:1011000088E0DF011D928A95E9F708958331910502
:1011100088F48131910530F48130910519F08930DE
:10112000910531F42FEF3FEF30931202209311021B
:101130000C943A088D319105D9F7677F60931402BA
:101140002091FB012F73362F307C232B2093FB0142
:10115000E9CFBF92CF92DF92EF92FF920F931F934E
:10116000CF93DF938B01B42E690182FF23C083FFED
:1011700017C061E0C8010E9408088823D9F16B2DCF
:10118000C8010E9486088B1135C0F601DF91CF910E
:101190001F910F91FF90EF90DF90CF90BF90099437
:1011A00060E0C8010E940808882321F1C8010E945C
:1011B0006106E9CF842F8770C1E0D0E07E0101C0D5
:1011C000EE0C8A95EAF7D42FD870CB010E94610605
:1011D000C82FB4FE1CC061E0C8010E940808882323
:1011E00049F0DD2389F0CE296C2FC8010E948608C2
:1011F0008C1759F2DF91CF911F910F91FF90EF90D3
:10120000DF90CF90BF900895E094CE21EDCF60E0C5
:10121000C8010E940808882369F3CE21DD2319F054
:10122000C111B3CFE7CFCC2309F4AFCFE3CFAF9257
:10123000BF92DF92EF92FF920F931F93CF93DF93B2
:101240007C01162FC42FD22ED42FD07E8091FB018B
:1012500087FF2CC0D03EC1F5A090FC01AA20A1F1CF
:10126000B12CC5010E946106D82FC50101960E94CC
:101270006106982F8D2FE816F90631F56C2F70E076
:10128000762F6627662773706D296F5F7F4F26E381
:1012900033E0402F8C2FDF91CF911F910F91FF9062
:1012A000EF90DF90BF90AF900C94A90880FD33C001
:1012B000D03609F464C090F4D03209F449C0D03477
:1012C00009F45DC0DD2381F1DF91CF911F910F9172
:1012D000FF90EF90DF90BF90AF900895D03A09F45F
:1012E00084C090F42C2F2F7141E0D03869F7612F22
:1012F000C701DF91CF911F910F91FF90EF90DF9089
:10130000BF90AF900C944003D03C09F475C0D03E20
:1013100009F4B4CFD9CF0E9463068E159F0541F220
:10132000E114F10429F2D0CF8C2F8E7069F680E0A1
:1013300090E0892B49F28C2F8170DF91CF911F9122
:101340000F91FF90EF90DF90BF90AF900C94000052
:10135000CF71CF3109F0B8CF4D2D4F7761F04130CB
:1013600061F02D2D221F2227221F0DE1612FC701C1
:101370000E94F903A9CF41E0F4CF40E0F2CF2C2F37
:1013800030E08C2F8F71813029F030F0803121F0E6
:10139000813109F540E001C041E095E035952795A0
:1013A0009A95E1F721700DE1612FC7010E94F903C1
:1013B00080E090E0892B09F487CF4C2F612FC70183
:1013C000DF91CF911F910F91FF90EF90DF90BF9031
:1013D000AF900C940000C901880F991F8E71C4FB57
:1013E000442740F9482B4250D8CF2C2F2F7043E090
:1013F000C4FF7DCF42E07BCFCF71CE3131F0CF3112
:1014000009F062CF2D2D45E072CF2D2D44E06FCF36
:101410001F920F920FB60F9211242F933F938F9329
:101420009F93AF93BF938091F7019091F801A091A2
:10143000F901B091FA013091EA0123E0230F2D3731
:1014400068F126E8230F0296A11DB11D2093EA0141
:101450008093F7019093F801A093F901B093FA01FA
:101460008091E6019091E701A091E801B091E90136
:101470000196A11DB11D8093E6019093E701A09311
:10148000E801B093E901BF91AF919F918F913F9196
:101490002F910F900FBE0F901F9018950196A11DD0
:1014A000B11DD4CF1F920F920FB60F9211240BB61D
:1014B0000F922F933F934F935F936F937F938F93ED
:1014C0009F93AF93BF93EF93FF93E0912B01F09124
:1014D0002C010995FF91EF91BF91AF919F918F9151
:1014E0007F916F915F914F913F912F910F900BBE24
:1014F0000F900FBE0F901F9018951F920F920FB66E
:101500000F9211240BB60F922F933F934F935F933B
:101510006F937F938F939F93AF93BF93EF93FF93BB
:10152000E0912901F0912A010995FF91EF91BF9176
:10153000AF919F918F917F916F915F914F913F916B
:101540002F910F900BBE0F900FBE0F901F9018950C
:101550001F920F920FB60F9211240BB60F922F937A
:101560003F934F935F936F937F938F939F93AF932B
:10157000BF93EF93FF93E0912701F0912801099524
:10158000FF91EF91BF91AF919F918F917F916F915B
:101590005F914F913F912F910F900BBE0F900FBE17
:1015A0000F901F9018951F920F920FB60F92112453
:1015B0000BB60F922F933F934F935F936F937F934D
:1015C0008F939F93AF93BF93EF93FF93E091250188
:1015D000F09126010995FF91EF91BF91AF919F91F5
:1015E0008F917F916F915F914F913F912F910F90CC
:1015F0000BBE0F900FBE0F901F9018951F920F9269
:101600000FB60F9211240BB60F922F933F934F9367
:101610005F936F937F938F939F93AF93BF93EF935A
:10162000FF93E0912301F09124010995FF91EF913F
:10163000BF91AF919F918F917F916F915F914F91EA
:101640003F912F910F900BBE0F900FBE0F901F90E8
:1016500018951F920F920FB60F9211240BB60F928E
:101660002F933F934F935F936F937F938F939F93AA
:10167000AF93BF93EF93FF93E0912101F09122018B
:101680000995FF91EF91BF91AF919F918F917F91BC
:101690006F915F914F913F912F910F900BBE0F90E3
:1016A0000FBE0F901F9018951F920F920FB60F92BA
:1016B00011240BB60F922F933F934F935F936F9329
:1016C0007F938F939F93AF93BF93EF93FF93E0919B
:1016D0001F01F09120010995FF91EF91BF91AF910A
:1016E0009F918F917F916F915F914F913F912F913A
:1016F0000F900BBE0F900FBE0F901F9018951F926A
:101700000F920FB60F9211240BB60F922F933F93A7
:101710004F935F936F937F938F939F93AF93BF93F9
:10172000EF93FF93E0911D01F0911E010995FF9148
:10173000EF91BF91AF919F918F917F916F915F9149
:101740004F913F912F910F900BBE0F900FBE0F90B6
:101750001F9018951F920F920FB60F9211240BB67F
:101760000F922F933F934F935F936F937F938F933A
:101770009F93AF93BF93EF93FF9380917100887F06
:10178000803609F44DC008F040C0883209F4A9C081
:1017900028F5803109F49DC0C8F4882309F407C1F5
:1017A000883009F496C0FF91EF91BF91AF919F915E
:1017B0008F917F916F915F914F913F912F910F90FA
:1017C0000BBE0F900FBE0F901F901895883109F433
:1017D00088C0803241F78093350214C0803409F408
:1017E000A5C040F48033B9F38833E9F6809335021D
:1017F00085ECBCC0803509F489C0883509F49EC0E9
:10180000883489F60E946B02CECF883909F494C0DF
:1018100038F5883729F050F4883611F0803719F6FA
:1018200083E0809337021092CE0157C0883809F4C4
:1018300083C0803919F0803809F0B5CF8091CE018E
:10184000803208F079C0E091CE0181E08E0F809364
:10185000CE0180917300F0E0E255FE4F80833DC0E1
:10186000803B39F0E0F4803A09F485C0883A09F009
:101870009ACF84E0809337021092AD011092AC01B0
:10188000E091ED01F091EE0109958091AC0181119B
:101890000FC081E08093AC0110928C0109C0803CA4
:1018A00009F4A6CF883C09F4A3CF883B09F07BCF8D
:1018B000E091AD0181E08E0F8093AD01F0E0E4573F
:1018C000FE4F8081809373009091AD018091AC01B7
:1018D00031C0809130028093730085EC8093740056
:1018E00062CF90913202809131029817B8F58091C1
:1018F000330290913402E091320221E02E0F2093C6
:101900003202E80FF92FF11D8081E5CF20913302DB
:1019100030913402E091320281E08E0F80933202E6
:1019200080917300E20FF32FF11D808390913202BA
:1019300080913102981788F285E8D0CF2091330248
:1019400030913402E091320281E08E0F80933202B6
:1019500080917300E20FF32FF11D80838091360296
:10196000811150CF81E080932F0284EA809374002C
:101970001092370218CF85EC8093740010923702D2
:101980008091CE01803230F4E091CE01F0E0E2555A
:10199000FE4F10826091CE0170E0E091EB01F0917A
:1019A000EC018EEA91E009951092CE01FCCE1092E6
:1019B000350228CF1F920F920FB60F9211240BB64B
:1019C0000F92EF92FF920F931F932F933F934F939A
:1019D0005F936F937F938F939F93AF93BF93CF93B7
:1019E000DF93EF93FF930FB6F894A89581B58861C4
:1019F00081BD11BC0FBE789485B78F7D85BF1092D5
:101A00006B01C1E0D1E0D0933802C0935A0210922A
:101A1000390210925B020E945B01811105C0809126
:101A20006B018F5F80936B01CF5FCF3761F7809140
:101A3000690190916A01009731F00E94860F10921F
:101A40006A0110926901D0916B01DD2371F161E0AF
:101A500070E08D2F90E00E94CE0E7C0190936A0181
:101A60008093690110E0C1E001E000933802C09367
:101A70005A021092390210925B020E945B0181119E
:101A800005C0F701E10FF11DC0831F5FCF5FCF37A6
:101A900061F7D23050F080918A00887F80938A006D
:101AA00080917D008B7F80937D0010928800109242
:101AB000890085B7806285BFFF91EF91DF91CF915B
:101AC000BF91AF919F918F917F916F915F914F9156
:101AD0003F912F911F910F91FF90EF900F900BBEB0
:101AE0000F900FBE0F901F9018951F920F920FB678
:101AF0000F9211240BB60F922F933F934F935F9346
:101B00006F937F938F939F93AF93BF93CF93DF9305
:101B1000EF93FF937894C3E3D1E0E991F991808149
:101B200087FF08C08F77209168019181921720F17B
:101B30000E94D80481E0CF34D80779F786E984BDC4
:101B4000809168018F5F8032D1F080936801FF91AE
:101B5000EF91DF91CF91BF91AF919F918F917F9145
:101B60006F915F914F913F912F910F900BBE0F900E
:101B70000FBE0F901F9018950E944304DBCF109268
:101B80006801E5CFECE5F2E01382128288EE93E083
:101B9000A0E0B0E084839583A683B78383E591E0DA
:101BA000918380830895789483B78C6483BF87B7CB
:101BB000816087BF82E08EBD8EB581608EBD8FB59E
:101BC00081608FBD85B5846085BD85B5806485BD28
:101BD00080918A00836080938A0080918B0081606D
:101BE00080938B0087E886B91AB80FB6F894A89549
:101BF00081B5886181BD11BC0FBE1ABA17BA14BA7B
:101C000011BA12B81092610010926400E2EFF1E094
:101C10002491EDEBF1E08491882399F090E0880F16
:101C2000991FFC01E456FE4FA591B491FC01E455C7
:101C3000FE4F859194918FB7F894EC91E22BEC9341
:101C40008FBF81E00E94B3011092F0011092EF016A
:101C50001092390210925B021092370281E0809359
:101C6000360210922F0283E10E94B30182E10E94AA
:101C7000B301809171008C7F8093710088E4809320
:101C8000700085E4809374008DE292E09093EE0101
:101C90008093ED0189E392E09093EC018093EB0156
:101CA00082E0809372008CE0809370008AE497E079
:101CB0009093F2018093F1018BE193E09093F40112
:101CC0008093F301A19A8091610088608093610004
:101CD0008E9A80916400826080936400149A80914F
:101CE0006100806480936100139A8091610080623A
:101CF00080936100129A80916100806180936100FD
:101D0000A09A80916100846080936100A29A809182
:101D1000610082608093610003E311E0F801C191EA
:101D2000D1918F018881982F906898838F770E9436
:101D3000D804FFEF29E688E1F15020408040E1F728
:101D400000C0000088818F7788830E94430491E05F
:101D50000F34190719F7E0CFE199FECF9FBB8EBB77
:101D6000E09A99278DB30895262FE199FECF9FBB66
:101D70008EBBE09A01970DB2021631F02DBB0FB663
:101D8000F894E29AE19A0FBE0895EE0FFF1F002427
:101D9000001C0BBE0790F691E02D09940F931F9342
:101DA000CF93DF93869F8001879F100D969F100D24
:101DB0001124C8010E94EA0EEC01009729F0A80145
:101DC00070E060E00E940F10CE01DF91CF911F9173
:101DD0000F9108950F931F93CF93DF938230910556
:101DE00010F482E090E0E0916A02F0916B0230E042
:101DF00020E0B0E0A0E0309799F42115310509F416
:101E00004AC0281B390B24303105D8F58A819B81C3
:101E10006115710589F1FB0193838283FE0111C075
:101E2000408151810281138148175907E0F048171A
:101E3000590799F4109761F012960C931297139624
:101E40001C933296CF01DF91CF911F910F9108958E
:101E500000936A0210936B02F4CF2115310551F003
:101E60004217530738F0A901DB019A01BD01DF01D8
:101E7000F801C1CFEF01F9CF90936B0280936A0212
:101E8000CDCFFE01E20FF31F8193919322503109D0
:101E900039832883D7CF2091680230916902232BA0
:101EA00041F420912F013091300130936902209349
:101EB000680220912D0130912E012115310541F448
:101EC0002DB73EB74091310150913201241B350BA3
:101ED000E0916802F0916902E217F307A0F42E1B6B
:101EE0003F0B2817390778F0AC014E5F5F4F24177E
:101EF000350748F04E0F5F1F509369024093680208
:101F0000819391939FCFF0E0E0E09CCFCF93DF935C
:101F10000097E9F0FC01329713821282A0916A02C5
:101F2000B0916B02ED0130E020E01097A1F4208128
:101F30003181820F931F2091680230916902281726
:101F4000390709F061C0F0936902E0936802DF91FC
:101F5000CF910895EA01CE17DF07E8F54A815B814A
:101F60009E0141155105B1F7E901FB83EA834991CF
:101F70005991C40FD51FEC17FD0761F48081918141
:101F80000296840F951FE90199838883828193814A
:101F90009B838A83F0E0E0E012968D919C911397E9
:101FA0000097B9F52D913C911197CD010296820FC2
:101FB000931F20916802309169022817390739F67A
:101FC000309751F510926B0210926A02B093690239
:101FD000A0936802BCCFD383C28340815181840F18
:101FE000951FC817D90761F44E5F5F4F88819981AB
:101FF000480F591F518340838A819B819383828339
:102000002115310509F0B0CFF0936B02E0936A021D
:102010009ECFFD01DC01C0CF13821282D7CFDC013D
:1020200001C06D9341505040E0F70895F894FFCF00
:102030000EFF0DFF0CFF0BFF0AFF09FF08FF07FF54
:1020400006FF05FF04FF03FF02FF01FF016302001B
:102050000000000000000000000000000000006C14
:102060000280001A01180116011401120110010E5C
:10207000010C010A0108010601040102010001002E
:10208000000000EC02BF0233039C026402AC029D1C
:0220900002004C
:00000001FF
